{
	"_format": "hh-sol-artifact-1",
	"contractName": "svgNFT",
	"sourceName": "contracts/svgNFT.sol",
	"abi": [
		{
			"inputs": [],
			"stateMutability": "nonpayable",
			"type": "constructor"
		},
		{
			"anonymous": false,
			"inputs": [
				{
					"indexed": true,
					"internalType": "address",
					"name": "owner",
					"type": "address"
				},
				{
					"indexed": true,
					"internalType": "address",
					"name": "approved",
					"type": "address"
				},
				{
					"indexed": true,
					"internalType": "uint256",
					"name": "tokenId",
					"type": "uint256"
				}
			],
			"name": "Approval",
			"type": "event"
		},
		{
			"anonymous": false,
			"inputs": [
				{
					"indexed": true,
					"internalType": "address",
					"name": "owner",
					"type": "address"
				},
				{
					"indexed": true,
					"internalType": "address",
					"name": "operator",
					"type": "address"
				},
				{
					"indexed": false,
					"internalType": "bool",
					"name": "approved",
					"type": "bool"
				}
			],
			"name": "ApprovalForAll",
			"type": "event"
		},
		{
			"anonymous": false,
			"inputs": [
				{
					"indexed": true,
					"internalType": "address",
					"name": "from",
					"type": "address"
				},
				{
					"indexed": true,
					"internalType": "address",
					"name": "to",
					"type": "address"
				},
				{
					"indexed": true,
					"internalType": "uint256",
					"name": "tokenId",
					"type": "uint256"
				}
			],
			"name": "Transfer",
			"type": "event"
		},
		{
			"inputs": [
				{
					"internalType": "address",
					"name": "to",
					"type": "address"
				},
				{
					"internalType": "uint256",
					"name": "tokenId",
					"type": "uint256"
				}
			],
			"name": "approve",
			"outputs": [],
			"stateMutability": "nonpayable",
			"type": "function"
		},
		{
			"inputs": [
				{
					"internalType": "address",
					"name": "owner",
					"type": "address"
				}
			],
			"name": "balanceOf",
			"outputs": [
				{
					"internalType": "uint256",
					"name": "",
					"type": "uint256"
				}
			],
			"stateMutability": "view",
			"type": "function"
		},
		{
			"inputs": [],
			"name": "collectionName",
			"outputs": [
				{
					"internalType": "string",
					"name": "",
					"type": "string"
				}
			],
			"stateMutability": "view",
			"type": "function"
		},
		{
			"inputs": [],
			"name": "collectionSymbol",
			"outputs": [
				{
					"internalType": "string",
					"name": "",
					"type": "string"
				}
			],
			"stateMutability": "view",
			"type": "function"
		},
		{
			"inputs": [],
			"name": "createknft",
			"outputs": [
				{
					"internalType": "uint256",
					"name": "",
					"type": "uint256"
				}
			],
			"stateMutability": "nonpayable",
			"type": "function"
		},
		{
			"inputs": [
				{
					"internalType": "uint256",
					"name": "tokenId",
					"type": "uint256"
				}
			],
			"name": "getApproved",
			"outputs": [
				{
					"internalType": "address",
					"name": "",
					"type": "address"
				}
			],
			"stateMutability": "view",
			"type": "function"
		},
		{
			"inputs": [
				{
					"internalType": "address",
					"name": "owner",
					"type": "address"
				},
				{
					"internalType": "address",
					"name": "operator",
					"type": "address"
				}
			],
			"name": "isApprovedForAll",
			"outputs": [
				{
					"internalType": "bool",
					"name": "",
					"type": "bool"
				}
			],
			"stateMutability": "view",
			"type": "function"
		},
		{
			"inputs": [],
			"name": "name",
			"outputs": [
				{
					"internalType": "string",
					"name": "",
					"type": "string"
				}
			],
			"stateMutability": "view",
			"type": "function"
		},
		{
			"inputs": [
				{
					"internalType": "uint256",
					"name": "tokenId",
					"type": "uint256"
				}
			],
			"name": "ownerOf",
			"outputs": [
				{
					"internalType": "address",
					"name": "",
					"type": "address"
				}
			],
			"stateMutability": "view",
			"type": "function"
		},
		{
			"inputs": [
				{
					"internalType": "address",
					"name": "from",
					"type": "address"
				},
				{
					"internalType": "address",
					"name": "to",
					"type": "address"
				},
				{
					"internalType": "uint256",
					"name": "tokenId",
					"type": "uint256"
				}
			],
			"name": "safeTransferFrom",
			"outputs": [],
			"stateMutability": "nonpayable",
			"type": "function"
		},
		{
			"inputs": [
				{
					"internalType": "address",
					"name": "from",
					"type": "address"
				},
				{
					"internalType": "address",
					"name": "to",
					"type": "address"
				},
				{
					"internalType": "uint256",
					"name": "tokenId",
					"type": "uint256"
				},
				{
					"internalType": "bytes",
					"name": "data",
					"type": "bytes"
				}
			],
			"name": "safeTransferFrom",
			"outputs": [],
			"stateMutability": "nonpayable",
			"type": "function"
		},
		{
			"inputs": [
				{
					"internalType": "address",
					"name": "operator",
					"type": "address"
				},
				{
					"internalType": "bool",
					"name": "approved",
					"type": "bool"
				}
			],
			"name": "setApprovalForAll",
			"outputs": [],
			"stateMutability": "nonpayable",
			"type": "function"
		},
		{
			"inputs": [
				{
					"internalType": "bytes4",
					"name": "interfaceId",
					"type": "bytes4"
				}
			],
			"name": "supportsInterface",
			"outputs": [
				{
					"internalType": "bool",
					"name": "",
					"type": "bool"
				}
			],
			"stateMutability": "view",
			"type": "function"
		},
		{
			"inputs": [],
			"name": "symbol",
			"outputs": [
				{
					"internalType": "string",
					"name": "",
					"type": "string"
				}
			],
			"stateMutability": "view",
			"type": "function"
		},
		{
			"inputs": [
				{
					"internalType": "uint256",
					"name": "tokenId",
					"type": "uint256"
				}
			],
			"name": "tokenURI",
			"outputs": [
				{
					"internalType": "string",
					"name": "",
					"type": "string"
				}
			],
			"stateMutability": "view",
			"type": "function"
		},
		{
			"inputs": [
				{
					"internalType": "address",
					"name": "from",
					"type": "address"
				},
				{
					"internalType": "address",
					"name": "to",
					"type": "address"
				},
				{
					"internalType": "uint256",
					"name": "tokenId",
					"type": "uint256"
				}
			],
			"name": "transferFrom",
			"outputs": [],
			"stateMutability": "nonpayable",
			"type": "function"
		}
	],
	"bytecode": "0x60806040523480156200001157600080fd5b506040518060400160405280600681526020017f7376674e465400000000000000000000000000000000000000000000000000008152506040518060400160405280600681526020017f7376674e465400000000000000000000000000000000000000000000000000008152508160009080519060200190620000969291906200023c565b508060019080519060200190620000af9291906200023c565b505050620000c26200010860201b60201c565b60089080519060200190620000d99291906200023c565b50620000ea620001a260201b60201c565b60099080519060200190620001019291906200023c565b5062000351565b60606000805462000119906200031b565b80601f016020809104026020016040519081016040528092919081815260200182805462000147906200031b565b8015620001985780601f106200016c5761010080835404028352916020019162000198565b820191906000526020600020905b8154815290600101906020018083116200017a57829003601f168201915b5050505050905090565b606060018054620001b3906200031b565b80601f0160208091040260200160405190810160405280929190818152602001828054620001e1906200031b565b8015620002325780601f10620002065761010080835404028352916020019162000232565b820191906000526020600020905b8154815290600101906020018083116200021457829003601f168201915b5050505050905090565b8280546200024a906200031b565b90600052602060002090601f0160209004810192826200026e5760008555620002ba565b82601f106200028957805160ff1916838001178555620002ba565b82800160010185558215620002ba579182015b82811115620002b95782518255916020019190600101906200029c565b5b509050620002c99190620002cd565b5090565b5b80821115620002e8576000816000905550600101620002ce565b5090565b7f4e487b7100000000000000000000000000000000000000000000000000000000600052602260045260246000fd5b600060028204905060018216806200033457607f821691505b602082108114156200034b576200034a620002ec565b5b50919050565b612ff680620003616000396000f3fe608060405234801561001057600080fd5b50600436106101005760003560e01c80636352211e11610097578063b88d4fde11610066578063b88d4fde146102ad578063c87b56dd146102c9578063e5326ab1146102f9578063e985e9c51461031757610100565b80636352211e1461021357806370a082311461024357806395d89b4114610273578063a22cb4651461029157610100565b806320fcdcf0116100d357806320fcdcf01461019f57806323b872dd146101bd5780632f39352a146101d957806342842e0e146101f757610100565b806301ffc9a71461010557806306fdde0314610135578063081812fc14610153578063095ea7b314610183575b600080fd5b61011f600480360381019061011a9190611c95565b610347565b60405161012c9190611cdd565b60405180910390f35b61013d610429565b60405161014a9190611d91565b60405180910390f35b61016d60048036038101906101689190611de9565b6104bb565b60405161017a9190611e57565b60405180910390f35b61019d60048036038101906101989190611e9e565b610501565b005b6101a7610619565b6040516101b49190611eed565b60405180910390f35b6101d760048036038101906101d29190611f08565b610701565b005b6101e1610761565b6040516101ee9190611d91565b60405180910390f35b610211600480360381019061020c9190611f08565b6107ef565b005b61022d60048036038101906102289190611de9565b61080f565b60405161023a9190611e57565b60405180910390f35b61025d60048036038101906102589190611f5b565b6108c1565b60405161026a9190611eed565b60405180910390f35b61027b610979565b6040516102889190611d91565b60405180910390f35b6102ab60048036038101906102a69190611fb4565b610a0b565b005b6102c760048036038101906102c29190612129565b610a21565b005b6102e360048036038101906102de9190611de9565b610a83565b6040516102f09190611d91565b60405180910390f35b610301610b96565b60405161030e9190611d91565b60405180910390f35b610331600480360381019061032c91906121ac565b610c24565b60405161033e9190611cdd565b60405180910390f35b60007f80ac58cd000000000000000000000000000000000000000000000000000000007bffffffffffffffffffffffffffffffffffffffffffffffffffffffff1916827bffffffffffffffffffffffffffffffffffffffffffffffffffffffff1916148061041257507f5b5e139f000000000000000000000000000000000000000000000000000000007bffffffffffffffffffffffffffffffffffffffffffffffffffffffff1916827bffffffffffffffffffffffffffffffffffffffffffffffffffffffff1916145b80610422575061042182610cb8565b5b9050919050565b6060600080546104389061221b565b80601f01602080910402602001604051908101604052809291908181526020018280546104649061221b565b80156104b15780601f10610486576101008083540402835291602001916104b1565b820191906000526020600020905b81548152906001019060200180831161049457829003601f168201915b5050505050905090565b60006104c682610d22565b6004600083815260200190815260200160002060009054906101000a900473ffffffffffffffffffffffffffffffffffffffff169050919050565b600061050c8261080f565b90508073ffffffffffffffffffffffffffffffffffffffff168373ffffffffffffffffffffffffffffffffffffffff16141561057d576040517f08c379a0000000000000000000000000000000000000000000000000000000008152600401610574906122bf565b60405180910390fd5b8073ffffffffffffffffffffffffffffffffffffffff1661059c610d6d565b73ffffffffffffffffffffffffffffffffffffffff1614806105cb57506105ca816105c5610d6d565b610c24565b5b61060a576040517f08c379a000000000000000000000000000000000000000000000000000000000815260040161060190612351565b60405180910390fd5b6106148383610d75565b505050565b6000806106266007610e2e565b905060006040518061016001604052806101368152602001612e4b6101369139905060008161065484610e3c565b6040516020016106659291906123f9565b604051602081830303815290604052905060006106b261068485610e3c565b61068d84610f9d565b60405160200161069e929190612558565b604051602081830303815290604052610f9d565b90506000816040516020016106c791906125e9565b60405160208183030381529060405290506106e23386611135565b6106ec8582611153565b6106f660076111c7565b849550505050505090565b61071261070c610d6d565b826111dd565b610751576040517f08c379a00000000000000000000000000000000000000000000000000000000081526004016107489061267d565b60405180910390fd5b61075c838383611272565b505050565b6009805461076e9061221b565b80601f016020809104026020016040519081016040528092919081815260200182805461079a9061221b565b80156107e75780601f106107bc576101008083540402835291602001916107e7565b820191906000526020600020905b8154815290600101906020018083116107ca57829003601f168201915b505050505081565b61080a83838360405180602001604052806000815250610a21565b505050565b6000806002600084815260200190815260200160002060009054906101000a900473ffffffffffffffffffffffffffffffffffffffff169050600073ffffffffffffffffffffffffffffffffffffffff168173ffffffffffffffffffffffffffffffffffffffff1614156108b8576040517f08c379a00000000000000000000000000000000000000000000000000000000081526004016108af906126e9565b60405180910390fd5b80915050919050565b60008073ffffffffffffffffffffffffffffffffffffffff168273ffffffffffffffffffffffffffffffffffffffff161415610932576040517f08c379a00000000000000000000000000000000000000000000000000000000081526004016109299061277b565b60405180910390fd5b600360008373ffffffffffffffffffffffffffffffffffffffff1673ffffffffffffffffffffffffffffffffffffffff168152602001908152602001600020549050919050565b6060600180546109889061221b565b80601f01602080910402602001604051908101604052809291908181526020018280546109b49061221b565b8015610a015780601f106109d657610100808354040283529160200191610a01565b820191906000526020600020905b8154815290600101906020018083116109e457829003601f168201915b5050505050905090565b610a1d610a16610d6d565b83836114d9565b5050565b610a32610a2c610d6d565b836111dd565b610a71576040517f08c379a0000000000000000000000000000000000000000000000000000000008152600401610a689061267d565b60405180910390fd5b610a7d84848484611646565b50505050565b6060610a8e82610d22565b6000600660008481526020019081526020016000208054610aae9061221b565b80601f0160208091040260200160405190810160405280929190818152602001828054610ada9061221b565b8015610b275780601f10610afc57610100808354040283529160200191610b27565b820191906000526020600020905b815481529060010190602001808311610b0a57829003601f168201915b505050505090506000610b386116a2565b9050600081511415610b4e578192505050610b91565b600082511115610b83578082604051602001610b6b92919061279b565b60405160208183030381529060405292505050610b91565b610b8c846116b9565b925050505b919050565b60088054610ba39061221b565b80601f0160208091040260200160405190810160405280929190818152602001828054610bcf9061221b565b8015610c1c5780601f10610bf157610100808354040283529160200191610c1c565b820191906000526020600020905b815481529060010190602001808311610bff57829003601f168201915b505050505081565b6000600560008473ffffffffffffffffffffffffffffffffffffffff1673ffffffffffffffffffffffffffffffffffffffff16815260200190815260200160002060008373ffffffffffffffffffffffffffffffffffffffff1673ffffffffffffffffffffffffffffffffffffffff16815260200190815260200160002060009054906101000a900460ff16905092915050565b60007f01ffc9a7000000000000000000000000000000000000000000000000000000007bffffffffffffffffffffffffffffffffffffffffffffffffffffffff1916827bffffffffffffffffffffffffffffffffffffffffffffffffffffffff1916149050919050565b610d2b81611721565b610d6a576040517f08c379a0000000000000000000000000000000000000000000000000000000008152600401610d61906126e9565b60405180910390fd5b50565b600033905090565b816004600083815260200190815260200160002060006101000a81548173ffffffffffffffffffffffffffffffffffffffff021916908373ffffffffffffffffffffffffffffffffffffffff160217905550808273ffffffffffffffffffffffffffffffffffffffff16610de88361080f565b73ffffffffffffffffffffffffffffffffffffffff167f8c5be1e5ebec7d5bd14f71427d1e84f3dd0314c0f7b2291e5b200ac8c7c3b92560405160405180910390a45050565b600081600001549050919050565b60606000821415610e84576040518060400160405280600181526020017f30000000000000000000000000000000000000000000000000000000000000008152509050610f98565b600082905060005b60008214610eb6578080610e9f906127ee565b915050600a82610eaf9190612866565b9150610e8c565b60008167ffffffffffffffff811115610ed257610ed1611ffe565b5b6040519080825280601f01601f191660200182016040528015610f045781602001600182028036833780820191505090505b5090505b60008514610f9157600182610f1d9190612897565b9150600a85610f2c91906128cb565b6030610f3891906128fc565b60f81b818381518110610f4e57610f4d612952565b5b60200101907effffffffffffffffffffffffffffffffffffffffffffffffffffffffffffff1916908160001a905350600a85610f8a9190612866565b9450610f08565b8093505050505b919050565b60606000825190506000811415610fc65760405180602001604052806000815250915050611130565b60006003600283610fd791906128fc565b610fe19190612866565b6004610fed9190612981565b90506000602082610ffe91906128fc565b67ffffffffffffffff81111561101757611016611ffe565b5b6040519080825280601f01601f1916602001820160405280156110495781602001600182028036833780820191505090505b5090506000604051806060016040528060408152602001612f81604091399050600181016020830160005b868110156110ed5760038101905062ffffff818a015116603f8160121c168401518060081b905060ff603f83600c1c1686015116810190508060081b905060ff603f8360061c1686015116810190508060081b905060ff603f831686015116810190508060e01b90508084526004840193505050611074565b506003860660018114611107576002811461111757611122565b613d3d60f01b6002830352611122565b603d60f81b60018303525b508484525050819450505050505b919050565b61114f82826040518060200160405280600081525061178d565b5050565b61115c82611721565b61119b576040517f08c379a000000000000000000000000000000000000000000000000000000000815260040161119290612a4d565b60405180910390fd5b806006600084815260200190815260200160002090805190602001906111c2929190611b86565b505050565b6001816000016000828254019250508190555050565b6000806111e98361080f565b90508073ffffffffffffffffffffffffffffffffffffffff168473ffffffffffffffffffffffffffffffffffffffff16148061122b575061122a8185610c24565b5b8061126957508373ffffffffffffffffffffffffffffffffffffffff16611251846104bb565b73ffffffffffffffffffffffffffffffffffffffff16145b91505092915050565b8273ffffffffffffffffffffffffffffffffffffffff166112928261080f565b73ffffffffffffffffffffffffffffffffffffffff16146112e8576040517f08c379a00000000000000000000000000000000000000000000000000000000081526004016112df90612adf565b60405180910390fd5b600073ffffffffffffffffffffffffffffffffffffffff168273ffffffffffffffffffffffffffffffffffffffff161415611358576040517f08c379a000000000000000000000000000000000000000000000000000000000815260040161134f90612b71565b60405180910390fd5b6113638383836117e8565b61136e600082610d75565b6001600360008573ffffffffffffffffffffffffffffffffffffffff1673ffffffffffffffffffffffffffffffffffffffff16815260200190815260200160002060008282546113be9190612897565b925050819055506001600360008473ffffffffffffffffffffffffffffffffffffffff1673ffffffffffffffffffffffffffffffffffffffff168152602001908152602001600020600082825461141591906128fc565b92505081905550816002600083815260200190815260200160002060006101000a81548173ffffffffffffffffffffffffffffffffffffffff021916908373ffffffffffffffffffffffffffffffffffffffff160217905550808273ffffffffffffffffffffffffffffffffffffffff168473ffffffffffffffffffffffffffffffffffffffff167fddf252ad1be2c89b69c2b068fc378daa952ba7f163c4a11628f55a4df523b3ef60405160405180910390a46114d48383836117ed565b505050565b8173ffffffffffffffffffffffffffffffffffffffff168373ffffffffffffffffffffffffffffffffffffffff161415611548576040517f08c379a000000000000000000000000000000000000000000000000000000000815260040161153f90612bdd565b60405180910390fd5b80600560008573ffffffffffffffffffffffffffffffffffffffff1673ffffffffffffffffffffffffffffffffffffffff16815260200190815260200160002060008473ffffffffffffffffffffffffffffffffffffffff1673ffffffffffffffffffffffffffffffffffffffff16815260200190815260200160002060006101000a81548160ff0219169083151502179055508173ffffffffffffffffffffffffffffffffffffffff168373ffffffffffffffffffffffffffffffffffffffff167f17307eab39ab6107e8899845ad3d59bd9653f200f220920489ca2b5937696c31836040516116399190611cdd565b60405180910390a3505050565b611651848484611272565b61165d848484846117f2565b61169c576040517f08c379a000000000000000000000000000000000000000000000000000000000815260040161169390612c6f565b60405180910390fd5b50505050565b606060405180602001604052806000815250905090565b60606116c482610d22565b60006116ce6116a2565b905060008151116116ee5760405180602001604052806000815250611719565b806116f884610e3c565b60405160200161170992919061279b565b6040516020818303038152906040525b915050919050565b60008073ffffffffffffffffffffffffffffffffffffffff166002600084815260200190815260200160002060009054906101000a900473ffffffffffffffffffffffffffffffffffffffff1673ffffffffffffffffffffffffffffffffffffffff1614159050919050565b6117978383611989565b6117a460008484846117f2565b6117e3576040517f08c379a00000000000000000000000000000000000000000000000000000000081526004016117da90612c6f565b60405180910390fd5b505050565b505050565b505050565b60006118138473ffffffffffffffffffffffffffffffffffffffff16611b63565b1561197c578373ffffffffffffffffffffffffffffffffffffffff1663150b7a0261183c610d6d565b8786866040518563ffffffff1660e01b815260040161185e9493929190612ce4565b602060405180830381600087803b15801561187857600080fd5b505af19250505080156118a957506040513d601f19601f820116820180604052508101906118a69190612d45565b60015b61192c573d80600081146118d9576040519150601f19603f3d011682016040523d82523d6000602084013e6118de565b606091505b50600081511415611924576040517f08c379a000000000000000000000000000000000000000000000000000000000815260040161191b90612c6f565b60405180910390fd5b805181602001fd5b63150b7a0260e01b7bffffffffffffffffffffffffffffffffffffffffffffffffffffffff1916817bffffffffffffffffffffffffffffffffffffffffffffffffffffffff191614915050611981565b600190505b949350505050565b600073ffffffffffffffffffffffffffffffffffffffff168273ffffffffffffffffffffffffffffffffffffffff1614156119f9576040517f08c379a00000000000000000000000000000000000000000000000000000000081526004016119f090612dbe565b60405180910390fd5b611a0281611721565b15611a42576040517f08c379a0000000000000000000000000000000000000000000000000000000008152600401611a3990612e2a565b60405180910390fd5b611a4e600083836117e8565b6001600360008473ffffffffffffffffffffffffffffffffffffffff1673ffffffffffffffffffffffffffffffffffffffff1681526020019081526020016000206000828254611a9e91906128fc565b92505081905550816002600083815260200190815260200160002060006101000a81548173ffffffffffffffffffffffffffffffffffffffff021916908373ffffffffffffffffffffffffffffffffffffffff160217905550808273ffffffffffffffffffffffffffffffffffffffff16600073ffffffffffffffffffffffffffffffffffffffff167fddf252ad1be2c89b69c2b068fc378daa952ba7f163c4a11628f55a4df523b3ef60405160405180910390a4611b5f600083836117ed565b5050565b6000808273ffffffffffffffffffffffffffffffffffffffff163b119050919050565b828054611b929061221b565b90600052602060002090601f016020900481019282611bb45760008555611bfb565b82601f10611bcd57805160ff1916838001178555611bfb565b82800160010185558215611bfb579182015b82811115611bfa578251825591602001919060010190611bdf565b5b509050611c089190611c0c565b5090565b5b80821115611c25576000816000905550600101611c0d565b5090565b6000604051905090565b600080fd5b600080fd5b60007fffffffff0000000000000000000000000000000000000000000000000000000082169050919050565b611c7281611c3d565b8114611c7d57600080fd5b50565b600081359050611c8f81611c69565b92915050565b600060208284031215611cab57611caa611c33565b5b6000611cb984828501611c80565b91505092915050565b60008115159050919050565b611cd781611cc2565b82525050565b6000602082019050611cf26000830184611cce565b92915050565b600081519050919050565b600082825260208201905092915050565b60005b83811015611d32578082015181840152602081019050611d17565b83811115611d41576000848401525b50505050565b6000601f19601f8301169050919050565b6000611d6382611cf8565b611d6d8185611d03565b9350611d7d818560208601611d14565b611d8681611d47565b840191505092915050565b60006020820190508181036000830152611dab8184611d58565b905092915050565b6000819050919050565b611dc681611db3565b8114611dd157600080fd5b50565b600081359050611de381611dbd565b92915050565b600060208284031215611dff57611dfe611c33565b5b6000611e0d84828501611dd4565b91505092915050565b600073ffffffffffffffffffffffffffffffffffffffff82169050919050565b6000611e4182611e16565b9050919050565b611e5181611e36565b82525050565b6000602082019050611e6c6000830184611e48565b92915050565b611e7b81611e36565b8114611e8657600080fd5b50565b600081359050611e9881611e72565b92915050565b60008060408385031215611eb557611eb4611c33565b5b6000611ec385828601611e89565b9250506020611ed485828601611dd4565b9150509250929050565b611ee781611db3565b82525050565b6000602082019050611f026000830184611ede565b92915050565b600080600060608486031215611f2157611f20611c33565b5b6000611f2f86828701611e89565b9350506020611f4086828701611e89565b9250506040611f5186828701611dd4565b9150509250925092565b600060208284031215611f7157611f70611c33565b5b6000611f7f84828501611e89565b91505092915050565b611f9181611cc2565b8114611f9c57600080fd5b50565b600081359050611fae81611f88565b92915050565b60008060408385031215611fcb57611fca611c33565b5b6000611fd985828601611e89565b9250506020611fea85828601611f9f565b9150509250929050565b600080fd5b600080fd5b7f4e487b7100000000000000000000000000000000000000000000000000000000600052604160045260246000fd5b61203682611d47565b810181811067ffffffffffffffff8211171561205557612054611ffe565b5b80604052505050565b6000612068611c29565b9050612074828261202d565b919050565b600067ffffffffffffffff82111561209457612093611ffe565b5b61209d82611d47565b9050602081019050919050565b82818337600083830152505050565b60006120cc6120c784612079565b61205e565b9050828152602081018484840111156120e8576120e7611ff9565b5b6120f38482856120aa565b509392505050565b600082601f8301126121105761210f611ff4565b5b81356121208482602086016120b9565b91505092915050565b6000806000806080858703121561214357612142611c33565b5b600061215187828801611e89565b945050602061216287828801611e89565b935050604061217387828801611dd4565b925050606085013567ffffffffffffffff81111561219457612193611c38565b5b6121a0878288016120fb565b91505092959194509250565b600080604083850312156121c3576121c2611c33565b5b60006121d185828601611e89565b92505060206121e285828601611e89565b9150509250929050565b7f4e487b7100000000000000000000000000000000000000000000000000000000600052602260045260246000fd5b6000600282049050600182168061223357607f821691505b60208210811415612247576122466121ec565b5b50919050565b7f4552433732313a20617070726f76616c20746f2063757272656e74206f776e6560008201527f7200000000000000000000000000000000000000000000000000000000000000602082015250565b60006122a9602183611d03565b91506122b48261224d565b604082019050919050565b600060208201905081810360008301526122d88161229c565b9050919050565b7f4552433732313a20617070726f76652063616c6c6572206973206e6f7420746f60008201527f6b656e206f776e6572206e6f7220617070726f76656420666f7220616c6c0000602082015250565b600061233b603e83611d03565b9150612346826122df565b604082019050919050565b6000602082019050818103600083015261236a8161232e565b9050919050565b600081905092915050565b600061238782611cf8565b6123918185612371565b93506123a1818560208601611d14565b80840191505092915050565b7f3c2f746578743e3c2f7376673e00000000000000000000000000000000000000600082015250565b60006123e3600d83612371565b91506123ee826123ad565b600d82019050919050565b6000612405828561237c565b9150612411828461237c565b915061241c826123d6565b91508190509392505050565b7f7b226e616d65223a202200000000000000000000000000000000000000000000600082015250565b600061245e600a83612371565b915061246982612428565b600a82019050919050565b7f222c20226465736372697074696f6e223a20224120686967686c79206163636c60008201527f61696d656420636f6c6c656374696f6e2057617272696f7273222c2022696d6160208201527f6765223a2022646174613a696d6167652f7376672b786d6c3b6261736536342c604082015250565b60006124f6606083612371565b915061250182612474565b606082019050919050565b7f227d000000000000000000000000000000000000000000000000000000000000600082015250565b6000612542600283612371565b915061254d8261250c565b600282019050919050565b600061256382612451565b915061256f828561237c565b915061257a826124e9565b9150612586828461237c565b915061259182612535565b91508190509392505050565b7f646174613a6170706c69636174696f6e2f6a736f6e3b6261736536342c000000600082015250565b60006125d3601d83612371565b91506125de8261259d565b601d82019050919050565b60006125f4826125c6565b9150612600828461237c565b915081905092915050565b7f4552433732313a2063616c6c6572206973206e6f7420746f6b656e206f776e6560008201527f72206e6f7220617070726f766564000000000000000000000000000000000000602082015250565b6000612667602e83611d03565b91506126728261260b565b604082019050919050565b600060208201905081810360008301526126968161265a565b9050919050565b7f4552433732313a20696e76616c696420746f6b656e2049440000000000000000600082015250565b60006126d3601883611d03565b91506126de8261269d565b602082019050919050565b60006020820190508181036000830152612702816126c6565b9050919050565b7f4552433732313a2061646472657373207a65726f206973206e6f74206120766160008201527f6c6964206f776e65720000000000000000000000000000000000000000000000602082015250565b6000612765602983611d03565b915061277082612709565b604082019050919050565b6000602082019050818103600083015261279481612758565b9050919050565b60006127a7828561237c565b91506127b3828461237c565b91508190509392505050565b7f4e487b7100000000000000000000000000000000000000000000000000000000600052601160045260246000fd5b60006127f982611db3565b91507fffffffffffffffffffffffffffffffffffffffffffffffffffffffffffffffff82141561282c5761282b6127bf565b5b600182019050919050565b7f4e487b7100000000000000000000000000000000000000000000000000000000600052601260045260246000fd5b600061287182611db3565b915061287c83611db3565b92508261288c5761288b612837565b5b828204905092915050565b60006128a282611db3565b91506128ad83611db3565b9250828210156128c0576128bf6127bf565b5b828203905092915050565b60006128d682611db3565b91506128e183611db3565b9250826128f1576128f0612837565b5b828206905092915050565b600061290782611db3565b915061291283611db3565b9250827fffffffffffffffffffffffffffffffffffffffffffffffffffffffffffffffff03821115612947576129466127bf565b5b828201905092915050565b7f4e487b7100000000000000000000000000000000000000000000000000000000600052603260045260246000fd5b600061298c82611db3565b915061299783611db3565b9250817fffffffffffffffffffffffffffffffffffffffffffffffffffffffffffffffff04831182151516156129d0576129cf6127bf565b5b828202905092915050565b7f45524337323155524953746f726167653a2055524920736574206f66206e6f6e60008201527f6578697374656e7420746f6b656e000000000000000000000000000000000000602082015250565b6000612a37602e83611d03565b9150612a42826129db565b604082019050919050565b60006020820190508181036000830152612a6681612a2a565b9050919050565b7f4552433732313a207472616e736665722066726f6d20696e636f72726563742060008201527f6f776e6572000000000000000000000000000000000000000000000000000000602082015250565b6000612ac9602583611d03565b9150612ad482612a6d565b604082019050919050565b60006020820190508181036000830152612af881612abc565b9050919050565b7f4552433732313a207472616e7366657220746f20746865207a65726f2061646460008201527f7265737300000000000000000000000000000000000000000000000000000000602082015250565b6000612b5b602483611d03565b9150612b6682612aff565b604082019050919050565b60006020820190508181036000830152612b8a81612b4e565b9050919050565b7f4552433732313a20617070726f766520746f2063616c6c657200000000000000600082015250565b6000612bc7601983611d03565b9150612bd282612b91565b602082019050919050565b60006020820190508181036000830152612bf681612bba565b9050919050565b7f4552433732313a207472616e7366657220746f206e6f6e20455243373231526560008201527f63656976657220696d706c656d656e7465720000000000000000000000000000602082015250565b6000612c59603283611d03565b9150612c6482612bfd565b604082019050919050565b60006020820190508181036000830152612c8881612c4c565b9050919050565b600081519050919050565b600082825260208201905092915050565b6000612cb682612c8f565b612cc08185612c9a565b9350612cd0818560208601611d14565b612cd981611d47565b840191505092915050565b6000608082019050612cf96000830187611e48565b612d066020830186611e48565b612d136040830185611ede565b8181036060830152612d258184612cab565b905095945050505050565b600081519050612d3f81611c69565b92915050565b600060208284031215612d5b57612d5a611c33565b5b6000612d6984828501612d30565b91505092915050565b7f4552433732313a206d696e7420746f20746865207a65726f2061646472657373600082015250565b6000612da8602083611d03565b9150612db382612d72565b602082019050919050565b60006020820190508181036000830152612dd781612d9b565b9050919050565b7f4552433732313a20746f6b656e20616c7265616479206d696e74656400000000600082015250565b6000612e14601c83611d03565b9150612e1f82612dde565b602082019050919050565b60006020820190508181036000830152612e4381612e07565b905091905056fe3c7376672076696577426f783d2730203020333530203335302720786d6c6e733d27687474703a2f2f7777772e77332e6f72672f323030302f73766727203e3c7374796c653e2e62617365207b2066696c6c3a2077686974653b20666f6e742d66616d696c793a2073657269663b20666f6e742d73697a653a20323470783b207d3c2f7374796c653e3c636972636c652063783d27313735272063793d273137352720723d27313735272077696474683d273130302527206865696768743d2731303025272066696c6c3d27626c61636b273e3c2f636972636c653e3c7465787420783d273530252720793d273530252720636c6173733d27626173652720646f6d696e616e742d626173656c696e653d276d6964646c652720746578742d616e63686f723d276d6964646c65273e546f6b656e20234142434445464748494a4b4c4d4e4f505152535455565758595a6162636465666768696a6b6c6d6e6f707172737475767778797a303132333435363738392b2fa2646970667358221220ee13b048e7ccaaf7353e42230807a77b56759186548488a029c8a664eda3d42b64736f6c63430008090033",
	"linkReferences": {},
	"deployedLinkReferences": {}
}